{
  "contractName": "SimpleAuction",
  "abi": [
    {
      "constant": true,
      "inputs": [],
      "name": "beneficiary",
      "outputs": [
        {
          "name": "",
          "type": "address"
        }
      ],
      "payable": false,
      "stateMutability": "view",
      "type": "function",
      "signature": "0x38af3eed"
    },
    {
      "constant": true,
      "inputs": [],
      "name": "auctionEndTime",
      "outputs": [
        {
          "name": "",
          "type": "uint256"
        }
      ],
      "payable": false,
      "stateMutability": "view",
      "type": "function",
      "signature": "0x4b449cba"
    },
    {
      "constant": true,
      "inputs": [],
      "name": "highestBidder",
      "outputs": [
        {
          "name": "",
          "type": "address"
        }
      ],
      "payable": false,
      "stateMutability": "view",
      "type": "function",
      "signature": "0x91f90157"
    },
    {
      "constant": true,
      "inputs": [],
      "name": "highestBid",
      "outputs": [
        {
          "name": "",
          "type": "uint256"
        }
      ],
      "payable": false,
      "stateMutability": "view",
      "type": "function",
      "signature": "0xd57bde79"
    },
    {
      "inputs": [
        {
          "name": "_biddingTime",
          "type": "uint256"
        },
        {
          "name": "_beneficiary",
          "type": "address"
        }
      ],
      "payable": false,
      "stateMutability": "nonpayable",
      "type": "constructor",
      "signature": "constructor"
    },
    {
      "anonymous": false,
      "inputs": [
        {
          "indexed": false,
          "name": "bidder",
          "type": "address"
        },
        {
          "indexed": false,
          "name": "amount",
          "type": "uint256"
        }
      ],
      "name": "HighestBidIncreased",
      "type": "event",
      "signature": "0xf4757a49b326036464bec6fe419a4ae38c8a02ce3e68bf0809674f6aab8ad300"
    },
    {
      "anonymous": false,
      "inputs": [
        {
          "indexed": false,
          "name": "winner",
          "type": "address"
        },
        {
          "indexed": false,
          "name": "amount",
          "type": "uint256"
        }
      ],
      "name": "AuctionEnded",
      "type": "event",
      "signature": "0xdaec4582d5d9595688c8c98545fdd1c696d41c6aeaeb636737e84ed2f5c00eda"
    },
    {
      "constant": false,
      "inputs": [],
      "name": "bid",
      "outputs": [],
      "payable": true,
      "stateMutability": "payable",
      "type": "function",
      "signature": "0x1998aeef"
    },
    {
      "constant": false,
      "inputs": [],
      "name": "withDraw",
      "outputs": [
        {
          "name": "",
          "type": "bool"
        }
      ],
      "payable": false,
      "stateMutability": "nonpayable",
      "type": "function",
      "signature": "0x0fdb1c10"
    },
    {
      "constant": false,
      "inputs": [],
      "name": "auctionEnd",
      "outputs": [],
      "payable": false,
      "stateMutability": "nonpayable",
      "type": "function",
      "signature": "0x2a24f46c"
    }
  ],
  "bytecode": "0x608060405234801561001057600080fd5b506040516040806108208339810180604052604081101561003057600080fd5b810190808051906020019092919080519060200190929190505050806000806101000a81548173ffffffffffffffffffffffffffffffffffffffff021916908373ffffffffffffffffffffffffffffffffffffffff160217905550814201600181905550505061077b806100a56000396000f3fe608060405260043610610083576000357c0100000000000000000000000000000000000000000000000000000000900463ffffffff1680630fdb1c10146100885780631998aeef146100b75780632a24f46c146100c157806338af3eed146100d85780634b449cba1461012f57806391f901571461015a578063d57bde79146101b1575b600080fd5b34801561009457600080fd5b5061009d6101dc565b604051808215151515815260200191505060405180910390f35b6100bf610302565b005b3480156100cd57600080fd5b506100d661054c565b005b3480156100e457600080fd5b506100ed6106f8565b604051808273ffffffffffffffffffffffffffffffffffffffff1673ffffffffffffffffffffffffffffffffffffffff16815260200191505060405180910390f35b34801561013b57600080fd5b5061014461071d565b6040518082815260200191505060405180910390f35b34801561016657600080fd5b5061016f610723565b604051808273ffffffffffffffffffffffffffffffffffffffff1673ffffffffffffffffffffffffffffffffffffffff16815260200191505060405180910390f35b3480156101bd57600080fd5b506101c6610749565b6040518082815260200191505060405180910390f35b600080600460003373ffffffffffffffffffffffffffffffffffffffff1673ffffffffffffffffffffffffffffffffffffffff16815260200190815260200160002054905060008111156102f9576000600460003373ffffffffffffffffffffffffffffffffffffffff1673ffffffffffffffffffffffffffffffffffffffff168152602001908152602001600020819055503373ffffffffffffffffffffffffffffffffffffffff166108fc829081150290604051600060405180830381858888f1935050505015156102f85780600460003373ffffffffffffffffffffffffffffffffffffffff1673ffffffffffffffffffffffffffffffffffffffff1681526020019081526020016000208190555060009150506102ff565b5b60019150505b90565b600154421115151561037c576040517f08c379a000000000000000000000000000000000000000000000000000000000815260040180806020018281038252600d8152602001807f416c726561647920456e6465640000000000000000000000000000000000000081525060200191505060405180910390fd5b600354341115156103f5576040517f08c379a00000000000000000000000000000000000000000000000000000000081526004018080602001828103825260188152602001807f416c72656164792068617320612068696768657220626964000000000000000081525060200191505060405180910390fd5b60006003541415156104735760035460046000600260009054906101000a900473ffffffffffffffffffffffffffffffffffffffff1673ffffffffffffffffffffffffffffffffffffffff1673ffffffffffffffffffffffffffffffffffffffff168152602001908152602001600020600082825401925050819055505b33600260006101000a81548173ffffffffffffffffffffffffffffffffffffffff021916908373ffffffffffffffffffffffffffffffffffffffff160217905550346003819055507ff4757a49b326036464bec6fe419a4ae38c8a02ce3e68bf0809674f6aab8ad300600260009054906101000a900473ffffffffffffffffffffffffffffffffffffffff16600354604051808373ffffffffffffffffffffffffffffffffffffffff1673ffffffffffffffffffffffffffffffffffffffff1681526020018281526020019250505060405180910390a1565b600154421015151561055d57600080fd5b600560009054906101000a900460ff161515156105e2576040517f08c379a00000000000000000000000000000000000000000000000000000000081526004018080602001828103825260208152602001807f66756e6374696f6e2068617320616c7265616479206265656e2063616c6c656481525060200191505060405180910390fd5b6001600560006101000a81548160ff0219169083151502179055507fdaec4582d5d9595688c8c98545fdd1c696d41c6aeaeb636737e84ed2f5c00eda600260009054906101000a900473ffffffffffffffffffffffffffffffffffffffff16600354604051808373ffffffffffffffffffffffffffffffffffffffff1673ffffffffffffffffffffffffffffffffffffffff1681526020018281526020019250505060405180910390a16000809054906101000a900473ffffffffffffffffffffffffffffffffffffffff1673ffffffffffffffffffffffffffffffffffffffff166108fc6003549081150290604051600060405180830381858888f193505050501580156106f5573d6000803e3d6000fd5b50565b6000809054906101000a900473ffffffffffffffffffffffffffffffffffffffff1681565b60015481565b600260009054906101000a900473ffffffffffffffffffffffffffffffffffffffff1681565b6003548156fea165627a7a723058206aadd8687cfeefbd44ab85065a86312fd2de6c1fcede66eedacfead0f1a2b20a0029",
  "source": "pragma solidity >= 0.4.22 < 0.6.0 ;\r\n\r\ncontract SimpleAuction {\r\n    address payable public beneficiary;\r\n    uint public auctionEndTime;\r\n\r\n    address public highestBidder;\r\n    uint public highestBid;\r\n    \r\n    mapping (address => uint) pendingReturns;\r\n\r\n    bool ended;\r\n\r\n    event HighestBidIncreased(address bidder, uint amount);\r\n    event AuctionEnded(address winner, uint amount);\r\n\r\n    constructor (\r\n        uint _biddingTime,\r\n        address payable _beneficiary\r\n    ) public {\r\n        beneficiary = _beneficiary;\r\n        auctionEndTime = now + _biddingTime;\r\n    }\r\n\r\n    function bid() public payable {\r\n\r\n        /**\r\n        Check whether auction ended or not\r\n        Check whether the bid value is greater than the existing highest bid\r\n        */\r\n\r\n        require(now <= auctionEndTime, 'Already Ended');\r\n        require(msg.value > highestBid, 'Already has a higher bid');\r\n        \r\n\r\n        /**\r\n        If the bid value exceed the current highest bid\r\n        Mark the bid value to be returned to the bidder.\r\n        Set the new highest bid and highest bidder\r\n        */\r\n\r\n        if (highestBid != 0) {\r\n            pendingReturns[highestBidder] += highestBid;\r\n        }\r\n\r\n        highestBidder = msg.sender;\r\n        highestBid = msg.value;\r\n        emit HighestBidIncreased(highestBidder, highestBid);\r\n\r\n    }\r\n\r\n    function withDraw() public returns (bool) {\r\n        uint amount = pendingReturns[msg.sender];\r\n        if (amount > 0) {\r\n\r\n            /**\r\n            First make the pending return value for the address zero and then try to withdraw. If failed, reset the amount \r\n            Otherwise if we try withdrawing first and making it zero later, security problem can arise where someone can execute the withdraw multiple times before it gets to the make zero statement\r\n            */\r\n\r\n            pendingReturns[msg.sender] = 0;\r\n            if (!msg.sender.send(amount)) {\r\n                pendingReturns[msg.sender] = amount;\r\n                return false;\r\n            }\r\n        }\r\n        return true;\r\n    }\r\n\r\n    function auctionEnd() public {\r\n        /**\r\n        A good design practice is to structure the functions that interact with other contracts into three phrases\r\n        1. Check the conditions\r\n        2. Perform the actions\r\n        3. Interact with other contracts\r\n        */\r\n\r\n        // 1. Checking the conditions\r\n\r\n        require(now >= auctionEndTime);\r\n        require(!ended, 'function has already been called');\r\n\r\n        // 2. Performing the actions\r\n\r\n        ended = true;\r\n        emit AuctionEnded (highestBidder, highestBid);\r\n\r\n        // 3. Interacting with other contracts\r\n\r\n        beneficiary.transfer(highestBid);\r\n\r\n    }\r\n\r\n}\r\n",
  "sourcePath": "C:/Users/kbarman/Desktop/watson/first1/contracts/SimpleAuction.sol",
  "compiler": {
    "name": "solc",
    "version": "0.5.0+commit.1d4f565a.Emscripten.clang"
  },
  "schemaVersion": "3.0.1",
  "updatedAt": "2019-02-07T12:43:41.224Z",
  "devdoc": {
    "methods": {}
  },
  "userdoc": {
    "methods": {}
  }
}